{
  "contractName": "Migrations",
  "abi": [
    {
      "constant": true,
      "inputs": [],
      "name": "last_completed_migration",
      "outputs": [
        {
          "internalType": "uint256",
          "name": "",
          "type": "uint256"
        }
      ],
      "payable": false,
      "stateMutability": "view",
      "type": "function"
    },
    {
      "constant": true,
      "inputs": [],
      "name": "owner",
      "outputs": [
        {
          "internalType": "address",
          "name": "",
          "type": "address"
        }
      ],
      "payable": false,
      "stateMutability": "view",
      "type": "function"
    },
    {
      "constant": false,
      "inputs": [
        {
          "internalType": "uint256",
          "name": "completed",
          "type": "uint256"
        }
      ],
      "name": "setCompleted",
      "outputs": [],
      "payable": false,
      "stateMutability": "nonpayable",
      "type": "function"
    }
  ],
  "bytecode": "0x608060405260008054600160a060020a0319163317905534801561002257600080fd5b506101cb806100326000396000f3fe608060405234801561001057600080fd5b506004361061005d577c01000000000000000000000000000000000000000000000000000000006000350463445df0ac81146100625780638da5cb5b1461007c578063fdacd576146100ad575b600080fd5b61006a6100cc565b60408051918252519081900360200190f35b6100846100d2565b6040805173ffffffffffffffffffffffffffffffffffffffff9092168252519081900360200190f35b6100ca600480360360208110156100c357600080fd5b50356100ee565b005b60015481565b60005473ffffffffffffffffffffffffffffffffffffffff1681565b60005473ffffffffffffffffffffffffffffffffffffffff16331461015e576040517f08c379a00000000000000000000000000000000000000000000000000000000081526004018080602001828103825260338152602001806101646033913960400191505060405180910390fd5b60015556fe546869732066756e6374696f6e206973207265737472696374656420746f2074686520636f6e74726163742773206f776e6572a265627a7a723158208c9b886c46f1d1dc963b3b535168f623ec8f8c9af93f35c2931ca6cf563bdf5464736f6c63430005100032",
  "source": "// SPDX-License-Identifier: MIT\r\npragma solidity >=0.4.22 <0.8.0;\r\n\r\ncontract Migrations {\r\n  address public owner = msg.sender;\r\n  uint public last_completed_migration;\r\n\r\n  modifier restricted() {\r\n    require(\r\n      msg.sender == owner,\r\n      \"This function is restricted to the contract's owner\"\r\n    );\r\n    _;\r\n  }\r\n\r\n  function setCompleted(uint completed) public restricted {\r\n    last_completed_migration = completed;\r\n  }\r\n}\r\n",
  "sourcePath": "C:\\Users\\mukul\\Documents\\CZ4153-Decentralized-Exchange-Project\\contracts\\Migrations.sol",
  "compiler": {
    "name": "solc",
    "version": "0.5.16+commit.9c3226ce.Emscripten.clang"
  },
  "schemaVersion": "3.4.16",
  "updatedAt": "2024-11-18T17:34:51.257Z",
  "networkType": "ethereum",
  "devdoc": {
    "methods": {}
  },
  "userdoc": {
    "methods": {}
  }
}